{
	"data": {
		"bytecode": {
			"linkReferences": {},
			"object": "608060405234801561001057600080fd5b506104f2806100206000396000f3fe608060405234801561001057600080fd5b506004361061002b5760003560e01c80635f3fa56b14610030575b600080fd5b61004a60048036038101906100459190610235565b610060565b60405161005791906103c7565b60405180910390f35b6100686101ba565b600060029050600084600060028110610084576100836103e2565b5b5050600290506000846000600281106100a05761009f6103e2565b5b5050600290506100ae6101ba565b60005b848110156101ac5760005b8381101561019a5760005b85811015610188578881600281106100e2576100e16103e2565b5b6040020182600281106100f8576100f76103e2565b5b60200201358a84600281106101105761010f6103e2565b5b604002018260028110610126576101256103e2565b5b60200201356101359190610440565b848460028110610148576101476103e2565b5b6020020151836002811061015f5761015e6103e2565b5b602002018181516101709190610440565b915081815250508061018190610474565b90506100c7565b508061019390610474565b90506100bc565b50806101a590610474565b90506100b1565b508094505050505092915050565b60405180604001604052806002905b6101d16101e7565b8152602001906001900390816101c95790505090565b6040518060400160405280600290602082028036833780820191505090505090565b600080fd5b600080fd5b60008190508260406002028201111561022f5761022e61020e565b5b92915050565b600080610100838503121561024d5761024c610209565b5b600061025b85828601610213565b925050608061026c85828601610213565b9150509250929050565b600060029050919050565b600081905092915050565b6000819050919050565b600060029050919050565b600081905092915050565b6000819050919050565b6000819050919050565b6102c9816102b6565b82525050565b60006102db83836102c0565b60208301905092915050565b6000602082019050919050565b6102fd81610296565b61030781846102a1565b9250610312826102ac565b8060005b8381101561034357815161032a87826102cf565b9650610335836102e7565b925050600181019050610316565b505050505050565b600061035783836102f4565b60408301905092915050565b6000602082019050919050565b61037981610276565b6103838184610281565b925061038e8261028c565b8060005b838110156103bf5781516103a6878261034b565b96506103b183610363565b925050600181019050610392565b505050505050565b60006080820190506103dc6000830184610370565b92915050565b7f4e487b7100000000000000000000000000000000000000000000000000000000600052603260045260246000fd5b7f4e487b7100000000000000000000000000000000000000000000000000000000600052601160045260246000fd5b600061044b826102b6565b9150610456836102b6565b925082820190508082111561046e5761046d610411565b5b92915050565b600061047f826102b6565b91507fffffffffffffffffffffffffffffffffffffffffffffffffffffffffffffffff82036104b1576104b0610411565b5b60018201905091905056fea2646970667358221220c7575542ef539471630e67193c0a27b83146018a86d95c63b1b73d31756d567b64736f6c63430008110033",
			"opcodes": "PUSH1 0x80 PUSH1 0x40 MSTORE CALLVALUE DUP1 ISZERO PUSH2 0x10 JUMPI PUSH1 0x0 DUP1 REVERT JUMPDEST POP PUSH2 0x4F2 DUP1 PUSH2 0x20 PUSH1 0x0 CODECOPY PUSH1 0x0 RETURN INVALID PUSH1 0x80 PUSH1 0x40 MSTORE CALLVALUE DUP1 ISZERO PUSH2 0x10 JUMPI PUSH1 0x0 DUP1 REVERT JUMPDEST POP PUSH1 0x4 CALLDATASIZE LT PUSH2 0x2B JUMPI PUSH1 0x0 CALLDATALOAD PUSH1 0xE0 SHR DUP1 PUSH4 0x5F3FA56B EQ PUSH2 0x30 JUMPI JUMPDEST PUSH1 0x0 DUP1 REVERT JUMPDEST PUSH2 0x4A PUSH1 0x4 DUP1 CALLDATASIZE SUB DUP2 ADD SWAP1 PUSH2 0x45 SWAP2 SWAP1 PUSH2 0x235 JUMP JUMPDEST PUSH2 0x60 JUMP JUMPDEST PUSH1 0x40 MLOAD PUSH2 0x57 SWAP2 SWAP1 PUSH2 0x3C7 JUMP JUMPDEST PUSH1 0x40 MLOAD DUP1 SWAP2 SUB SWAP1 RETURN JUMPDEST PUSH2 0x68 PUSH2 0x1BA JUMP JUMPDEST PUSH1 0x0 PUSH1 0x2 SWAP1 POP PUSH1 0x0 DUP5 PUSH1 0x0 PUSH1 0x2 DUP2 LT PUSH2 0x84 JUMPI PUSH2 0x83 PUSH2 0x3E2 JUMP JUMPDEST JUMPDEST POP POP PUSH1 0x2 SWAP1 POP PUSH1 0x0 DUP5 PUSH1 0x0 PUSH1 0x2 DUP2 LT PUSH2 0xA0 JUMPI PUSH2 0x9F PUSH2 0x3E2 JUMP JUMPDEST JUMPDEST POP POP PUSH1 0x2 SWAP1 POP PUSH2 0xAE PUSH2 0x1BA JUMP JUMPDEST PUSH1 0x0 JUMPDEST DUP5 DUP2 LT ISZERO PUSH2 0x1AC JUMPI PUSH1 0x0 JUMPDEST DUP4 DUP2 LT ISZERO PUSH2 0x19A JUMPI PUSH1 0x0 JUMPDEST DUP6 DUP2 LT ISZERO PUSH2 0x188 JUMPI DUP9 DUP2 PUSH1 0x2 DUP2 LT PUSH2 0xE2 JUMPI PUSH2 0xE1 PUSH2 0x3E2 JUMP JUMPDEST JUMPDEST PUSH1 0x40 MUL ADD DUP3 PUSH1 0x2 DUP2 LT PUSH2 0xF8 JUMPI PUSH2 0xF7 PUSH2 0x3E2 JUMP JUMPDEST JUMPDEST PUSH1 0x20 MUL ADD CALLDATALOAD DUP11 DUP5 PUSH1 0x2 DUP2 LT PUSH2 0x110 JUMPI PUSH2 0x10F PUSH2 0x3E2 JUMP JUMPDEST JUMPDEST PUSH1 0x40 MUL ADD DUP3 PUSH1 0x2 DUP2 LT PUSH2 0x126 JUMPI PUSH2 0x125 PUSH2 0x3E2 JUMP JUMPDEST JUMPDEST PUSH1 0x20 MUL ADD CALLDATALOAD PUSH2 0x135 SWAP2 SWAP1 PUSH2 0x440 JUMP JUMPDEST DUP5 DUP5 PUSH1 0x2 DUP2 LT PUSH2 0x148 JUMPI PUSH2 0x147 PUSH2 0x3E2 JUMP JUMPDEST JUMPDEST PUSH1 0x20 MUL ADD MLOAD DUP4 PUSH1 0x2 DUP2 LT PUSH2 0x15F JUMPI PUSH2 0x15E PUSH2 0x3E2 JUMP JUMPDEST JUMPDEST PUSH1 0x20 MUL ADD DUP2 DUP2 MLOAD PUSH2 0x170 SWAP2 SWAP1 PUSH2 0x440 JUMP JUMPDEST SWAP2 POP DUP2 DUP2 MSTORE POP POP DUP1 PUSH2 0x181 SWAP1 PUSH2 0x474 JUMP JUMPDEST SWAP1 POP PUSH2 0xC7 JUMP JUMPDEST POP DUP1 PUSH2 0x193 SWAP1 PUSH2 0x474 JUMP JUMPDEST SWAP1 POP PUSH2 0xBC JUMP JUMPDEST POP DUP1 PUSH2 0x1A5 SWAP1 PUSH2 0x474 JUMP JUMPDEST SWAP1 POP PUSH2 0xB1 JUMP JUMPDEST POP DUP1 SWAP5 POP POP POP POP POP SWAP3 SWAP2 POP POP JUMP JUMPDEST PUSH1 0x40 MLOAD DUP1 PUSH1 0x40 ADD PUSH1 0x40 MSTORE DUP1 PUSH1 0x2 SWAP1 JUMPDEST PUSH2 0x1D1 PUSH2 0x1E7 JUMP JUMPDEST DUP2 MSTORE PUSH1 0x20 ADD SWAP1 PUSH1 0x1 SWAP1 SUB SWAP1 DUP2 PUSH2 0x1C9 JUMPI SWAP1 POP POP SWAP1 JUMP JUMPDEST PUSH1 0x40 MLOAD DUP1 PUSH1 0x40 ADD PUSH1 0x40 MSTORE DUP1 PUSH1 0x2 SWAP1 PUSH1 0x20 DUP3 MUL DUP1 CALLDATASIZE DUP4 CALLDATACOPY DUP1 DUP3 ADD SWAP2 POP POP SWAP1 POP POP SWAP1 JUMP JUMPDEST PUSH1 0x0 DUP1 REVERT JUMPDEST PUSH1 0x0 DUP1 REVERT JUMPDEST PUSH1 0x0 DUP2 SWAP1 POP DUP3 PUSH1 0x40 PUSH1 0x2 MUL DUP3 ADD GT ISZERO PUSH2 0x22F JUMPI PUSH2 0x22E PUSH2 0x20E JUMP JUMPDEST JUMPDEST SWAP3 SWAP2 POP POP JUMP JUMPDEST PUSH1 0x0 DUP1 PUSH2 0x100 DUP4 DUP6 SUB SLT ISZERO PUSH2 0x24D JUMPI PUSH2 0x24C PUSH2 0x209 JUMP JUMPDEST JUMPDEST PUSH1 0x0 PUSH2 0x25B DUP6 DUP3 DUP7 ADD PUSH2 0x213 JUMP JUMPDEST SWAP3 POP POP PUSH1 0x80 PUSH2 0x26C DUP6 DUP3 DUP7 ADD PUSH2 0x213 JUMP JUMPDEST SWAP2 POP POP SWAP3 POP SWAP3 SWAP1 POP JUMP JUMPDEST PUSH1 0x0 PUSH1 0x2 SWAP1 POP SWAP2 SWAP1 POP JUMP JUMPDEST PUSH1 0x0 DUP2 SWAP1 POP SWAP3 SWAP2 POP POP JUMP JUMPDEST PUSH1 0x0 DUP2 SWAP1 POP SWAP2 SWAP1 POP JUMP JUMPDEST PUSH1 0x0 PUSH1 0x2 SWAP1 POP SWAP2 SWAP1 POP JUMP JUMPDEST PUSH1 0x0 DUP2 SWAP1 POP SWAP3 SWAP2 POP POP JUMP JUMPDEST PUSH1 0x0 DUP2 SWAP1 POP SWAP2 SWAP1 POP JUMP JUMPDEST PUSH1 0x0 DUP2 SWAP1 POP SWAP2 SWAP1 POP JUMP JUMPDEST PUSH2 0x2C9 DUP2 PUSH2 0x2B6 JUMP JUMPDEST DUP3 MSTORE POP POP JUMP JUMPDEST PUSH1 0x0 PUSH2 0x2DB DUP4 DUP4 PUSH2 0x2C0 JUMP JUMPDEST PUSH1 0x20 DUP4 ADD SWAP1 POP SWAP3 SWAP2 POP POP JUMP JUMPDEST PUSH1 0x0 PUSH1 0x20 DUP3 ADD SWAP1 POP SWAP2 SWAP1 POP JUMP JUMPDEST PUSH2 0x2FD DUP2 PUSH2 0x296 JUMP JUMPDEST PUSH2 0x307 DUP2 DUP5 PUSH2 0x2A1 JUMP JUMPDEST SWAP3 POP PUSH2 0x312 DUP3 PUSH2 0x2AC JUMP JUMPDEST DUP1 PUSH1 0x0 JUMPDEST DUP4 DUP2 LT ISZERO PUSH2 0x343 JUMPI DUP2 MLOAD PUSH2 0x32A DUP8 DUP3 PUSH2 0x2CF JUMP JUMPDEST SWAP7 POP PUSH2 0x335 DUP4 PUSH2 0x2E7 JUMP JUMPDEST SWAP3 POP POP PUSH1 0x1 DUP2 ADD SWAP1 POP PUSH2 0x316 JUMP JUMPDEST POP POP POP POP POP POP JUMP JUMPDEST PUSH1 0x0 PUSH2 0x357 DUP4 DUP4 PUSH2 0x2F4 JUMP JUMPDEST PUSH1 0x40 DUP4 ADD SWAP1 POP SWAP3 SWAP2 POP POP JUMP JUMPDEST PUSH1 0x0 PUSH1 0x20 DUP3 ADD SWAP1 POP SWAP2 SWAP1 POP JUMP JUMPDEST PUSH2 0x379 DUP2 PUSH2 0x276 JUMP JUMPDEST PUSH2 0x383 DUP2 DUP5 PUSH2 0x281 JUMP JUMPDEST SWAP3 POP PUSH2 0x38E DUP3 PUSH2 0x28C JUMP JUMPDEST DUP1 PUSH1 0x0 JUMPDEST DUP4 DUP2 LT ISZERO PUSH2 0x3BF JUMPI DUP2 MLOAD PUSH2 0x3A6 DUP8 DUP3 PUSH2 0x34B JUMP JUMPDEST SWAP7 POP PUSH2 0x3B1 DUP4 PUSH2 0x363 JUMP JUMPDEST SWAP3 POP POP PUSH1 0x1 DUP2 ADD SWAP1 POP PUSH2 0x392 JUMP JUMPDEST POP POP POP POP POP POP JUMP JUMPDEST PUSH1 0x0 PUSH1 0x80 DUP3 ADD SWAP1 POP PUSH2 0x3DC PUSH1 0x0 DUP4 ADD DUP5 PUSH2 0x370 JUMP JUMPDEST SWAP3 SWAP2 POP POP JUMP JUMPDEST PUSH32 0x4E487B7100000000000000000000000000000000000000000000000000000000 PUSH1 0x0 MSTORE PUSH1 0x32 PUSH1 0x4 MSTORE PUSH1 0x24 PUSH1 0x0 REVERT JUMPDEST PUSH32 0x4E487B7100000000000000000000000000000000000000000000000000000000 PUSH1 0x0 MSTORE PUSH1 0x11 PUSH1 0x4 MSTORE PUSH1 0x24 PUSH1 0x0 REVERT JUMPDEST PUSH1 0x0 PUSH2 0x44B DUP3 PUSH2 0x2B6 JUMP JUMPDEST SWAP2 POP PUSH2 0x456 DUP4 PUSH2 0x2B6 JUMP JUMPDEST SWAP3 POP DUP3 DUP3 ADD SWAP1 POP DUP1 DUP3 GT ISZERO PUSH2 0x46E JUMPI PUSH2 0x46D PUSH2 0x411 JUMP JUMPDEST JUMPDEST SWAP3 SWAP2 POP POP JUMP JUMPDEST PUSH1 0x0 PUSH2 0x47F DUP3 PUSH2 0x2B6 JUMP JUMPDEST SWAP2 POP PUSH32 0xFFFFFFFFFFFFFFFFFFFFFFFFFFFFFFFFFFFFFFFFFFFFFFFFFFFFFFFFFFFFFFFF DUP3 SUB PUSH2 0x4B1 JUMPI PUSH2 0x4B0 PUSH2 0x411 JUMP JUMPDEST JUMPDEST PUSH1 0x1 DUP3 ADD SWAP1 POP SWAP2 SWAP1 POP JUMP INVALID LOG2 PUSH5 0x6970667358 0x22 SLT KECCAK256 0xC7 JUMPI SSTORE TIMESTAMP 0xEF MSTORE8 SWAP5 PUSH18 0x630E67193C0A27B83146018A86D95C63B1B7 RETURNDATASIZE BALANCE PUSH22 0x6D567B64736F6C634300081100330000000000000000 "
		},
		"gasEstimates": {
			"creation": {
				"codeDepositCost": "253200",
				"executionCost": "294",
				"totalCost": "253494"
			},
			"external": {
				"solution(uint256[2][2],uint256[2][2])": "infinite"
			}
		},
		"methodIdentifiers": {
			"solution(uint256[2][2],uint256[2][2])": "5f3fa56b"
		}
	},
	"abi": [
		{
			"inputs": [
				{
					"internalType": "uint256[2][2]",
					"name": "x",
					"type": "uint256[2][2]"
				},
				{
					"internalType": "uint256[2][2]",
					"name": "y",
					"type": "uint256[2][2]"
				}
			],
			"name": "solution",
			"outputs": [
				{
					"internalType": "uint256[2][2]",
					"name": "",
					"type": "uint256[2][2]"
				}
			],
			"stateMutability": "pure",
			"type": "function"
		}
	]
}