{
	"data": {
		"bytecode": {
			"linkReferences": {},
			"object": "608060405234801561001057600080fd5b506104b2806100206000396000f3fe608060405234801561001057600080fd5b506004361061002b5760003560e01c8063209b472e14610030575b600080fd5b61004a600480360381019061004591906101fe565b610060565b60405161005791906102e1565b60405180910390f35b6100686101af565b600082600a806020026040519081016040528092919082600a60200280828437600081840152601f19601f82011690508083019250505050505090506000600a90506000600190505b818110156101a45760008382600a81106100ce576100cd6102fd565b5b6020020151905060006001836100e49190610365565b90505b6000811215801561010e5750818582600a8110610107576101066102fd565b5b6020020151115b15610166578481600a8110610126576101256102fd565b5b60200201518560018361013991906103a8565b600a811061014a576101496102fd565b5b602002018181525050808061015e906103ec565b9150506100e7565b818560018361017591906103a8565b600a8110610186576101856102fd565b5b6020020181815250505050808061019c90610434565b9150506100b1565b508192505050919050565b604051806101400160405280600a90602082028036833780820191505090505090565b600080fd5b600080fd5b6000819050826020600a02820111156101f8576101f76101d7565b5b92915050565b60006101408284031215610215576102146101d2565b5b6000610223848285016101dc565b91505092915050565b6000600a9050919050565b600081905092915050565b6000819050919050565b6000819050919050565b61025f8161024c565b82525050565b60006102718383610256565b60208301905092915050565b6000602082019050919050565b6102938161022c565b61029d8184610237565b92506102a882610242565b8060005b838110156102d95781516102c08782610265565b96506102cb8361027d565b9250506001810190506102ac565b505050505050565b6000610140820190506102f7600083018461028a565b92915050565b7f4e487b7100000000000000000000000000000000000000000000000000000000600052603260045260246000fd5b6000819050919050565b7f4e487b7100000000000000000000000000000000000000000000000000000000600052601160045260246000fd5b60006103708261032c565b915061037b8361032c565b92508282039050818112600084121682821360008512151617156103a2576103a1610336565b5b92915050565b60006103b38261032c565b91506103be8361032c565b9250828201905082811215600083121683821260008412151617156103e6576103e5610336565b5b92915050565b60006103f78261032c565b91507f8000000000000000000000000000000000000000000000000000000000000000820361042957610428610336565b5b600182039050919050565b600061043f8261024c565b91507fffffffffffffffffffffffffffffffffffffffffffffffffffffffffffffffff820361047157610470610336565b5b60018201905091905056fea2646970667358221220904e70976584b7a41375b79e7808fbbd1f9fdd79c77f0e0cba67fa69fedb791c64736f6c63430008110033",
			"opcodes": "PUSH1 0x80 PUSH1 0x40 MSTORE CALLVALUE DUP1 ISZERO PUSH2 0x10 JUMPI PUSH1 0x0 DUP1 REVERT JUMPDEST POP PUSH2 0x4B2 DUP1 PUSH2 0x20 PUSH1 0x0 CODECOPY PUSH1 0x0 RETURN INVALID PUSH1 0x80 PUSH1 0x40 MSTORE CALLVALUE DUP1 ISZERO PUSH2 0x10 JUMPI PUSH1 0x0 DUP1 REVERT JUMPDEST POP PUSH1 0x4 CALLDATASIZE LT PUSH2 0x2B JUMPI PUSH1 0x0 CALLDATALOAD PUSH1 0xE0 SHR DUP1 PUSH4 0x209B472E EQ PUSH2 0x30 JUMPI JUMPDEST PUSH1 0x0 DUP1 REVERT JUMPDEST PUSH2 0x4A PUSH1 0x4 DUP1 CALLDATASIZE SUB DUP2 ADD SWAP1 PUSH2 0x45 SWAP2 SWAP1 PUSH2 0x1FE JUMP JUMPDEST PUSH2 0x60 JUMP JUMPDEST PUSH1 0x40 MLOAD PUSH2 0x57 SWAP2 SWAP1 PUSH2 0x2E1 JUMP JUMPDEST PUSH1 0x40 MLOAD DUP1 SWAP2 SUB SWAP1 RETURN JUMPDEST PUSH2 0x68 PUSH2 0x1AF JUMP JUMPDEST PUSH1 0x0 DUP3 PUSH1 0xA DUP1 PUSH1 0x20 MUL PUSH1 0x40 MLOAD SWAP1 DUP2 ADD PUSH1 0x40 MSTORE DUP1 SWAP3 SWAP2 SWAP1 DUP3 PUSH1 0xA PUSH1 0x20 MUL DUP1 DUP3 DUP5 CALLDATACOPY PUSH1 0x0 DUP2 DUP5 ADD MSTORE PUSH1 0x1F NOT PUSH1 0x1F DUP3 ADD AND SWAP1 POP DUP1 DUP4 ADD SWAP3 POP POP POP POP POP POP SWAP1 POP PUSH1 0x0 PUSH1 0xA SWAP1 POP PUSH1 0x0 PUSH1 0x1 SWAP1 POP JUMPDEST DUP2 DUP2 LT ISZERO PUSH2 0x1A4 JUMPI PUSH1 0x0 DUP4 DUP3 PUSH1 0xA DUP2 LT PUSH2 0xCE JUMPI PUSH2 0xCD PUSH2 0x2FD JUMP JUMPDEST JUMPDEST PUSH1 0x20 MUL ADD MLOAD SWAP1 POP PUSH1 0x0 PUSH1 0x1 DUP4 PUSH2 0xE4 SWAP2 SWAP1 PUSH2 0x365 JUMP JUMPDEST SWAP1 POP JUMPDEST PUSH1 0x0 DUP2 SLT ISZERO DUP1 ISZERO PUSH2 0x10E JUMPI POP DUP2 DUP6 DUP3 PUSH1 0xA DUP2 LT PUSH2 0x107 JUMPI PUSH2 0x106 PUSH2 0x2FD JUMP JUMPDEST JUMPDEST PUSH1 0x20 MUL ADD MLOAD GT JUMPDEST ISZERO PUSH2 0x166 JUMPI DUP5 DUP2 PUSH1 0xA DUP2 LT PUSH2 0x126 JUMPI PUSH2 0x125 PUSH2 0x2FD JUMP JUMPDEST JUMPDEST PUSH1 0x20 MUL ADD MLOAD DUP6 PUSH1 0x1 DUP4 PUSH2 0x139 SWAP2 SWAP1 PUSH2 0x3A8 JUMP JUMPDEST PUSH1 0xA DUP2 LT PUSH2 0x14A JUMPI PUSH2 0x149 PUSH2 0x2FD JUMP JUMPDEST JUMPDEST PUSH1 0x20 MUL ADD DUP2 DUP2 MSTORE POP POP DUP1 DUP1 PUSH2 0x15E SWAP1 PUSH2 0x3EC JUMP JUMPDEST SWAP2 POP POP PUSH2 0xE7 JUMP JUMPDEST DUP2 DUP6 PUSH1 0x1 DUP4 PUSH2 0x175 SWAP2 SWAP1 PUSH2 0x3A8 JUMP JUMPDEST PUSH1 0xA DUP2 LT PUSH2 0x186 JUMPI PUSH2 0x185 PUSH2 0x2FD JUMP JUMPDEST JUMPDEST PUSH1 0x20 MUL ADD DUP2 DUP2 MSTORE POP POP POP POP DUP1 DUP1 PUSH2 0x19C SWAP1 PUSH2 0x434 JUMP JUMPDEST SWAP2 POP POP PUSH2 0xB1 JUMP JUMPDEST POP DUP2 SWAP3 POP POP POP SWAP2 SWAP1 POP JUMP JUMPDEST PUSH1 0x40 MLOAD DUP1 PUSH2 0x140 ADD PUSH1 0x40 MSTORE DUP1 PUSH1 0xA SWAP1 PUSH1 0x20 DUP3 MUL DUP1 CALLDATASIZE DUP4 CALLDATACOPY DUP1 DUP3 ADD SWAP2 POP POP SWAP1 POP POP SWAP1 JUMP JUMPDEST PUSH1 0x0 DUP1 REVERT JUMPDEST PUSH1 0x0 DUP1 REVERT JUMPDEST PUSH1 0x0 DUP2 SWAP1 POP DUP3 PUSH1 0x20 PUSH1 0xA MUL DUP3 ADD GT ISZERO PUSH2 0x1F8 JUMPI PUSH2 0x1F7 PUSH2 0x1D7 JUMP JUMPDEST JUMPDEST SWAP3 SWAP2 POP POP JUMP JUMPDEST PUSH1 0x0 PUSH2 0x140 DUP3 DUP5 SUB SLT ISZERO PUSH2 0x215 JUMPI PUSH2 0x214 PUSH2 0x1D2 JUMP JUMPDEST JUMPDEST PUSH1 0x0 PUSH2 0x223 DUP5 DUP3 DUP6 ADD PUSH2 0x1DC JUMP JUMPDEST SWAP2 POP POP SWAP3 SWAP2 POP POP JUMP JUMPDEST PUSH1 0x0 PUSH1 0xA SWAP1 POP SWAP2 SWAP1 POP JUMP JUMPDEST PUSH1 0x0 DUP2 SWAP1 POP SWAP3 SWAP2 POP POP JUMP JUMPDEST PUSH1 0x0 DUP2 SWAP1 POP SWAP2 SWAP1 POP JUMP JUMPDEST PUSH1 0x0 DUP2 SWAP1 POP SWAP2 SWAP1 POP JUMP JUMPDEST PUSH2 0x25F DUP2 PUSH2 0x24C JUMP JUMPDEST DUP3 MSTORE POP POP JUMP JUMPDEST PUSH1 0x0 PUSH2 0x271 DUP4 DUP4 PUSH2 0x256 JUMP JUMPDEST PUSH1 0x20 DUP4 ADD SWAP1 POP SWAP3 SWAP2 POP POP JUMP JUMPDEST PUSH1 0x0 PUSH1 0x20 DUP3 ADD SWAP1 POP SWAP2 SWAP1 POP JUMP JUMPDEST PUSH2 0x293 DUP2 PUSH2 0x22C JUMP JUMPDEST PUSH2 0x29D DUP2 DUP5 PUSH2 0x237 JUMP JUMPDEST SWAP3 POP PUSH2 0x2A8 DUP3 PUSH2 0x242 JUMP JUMPDEST DUP1 PUSH1 0x0 JUMPDEST DUP4 DUP2 LT ISZERO PUSH2 0x2D9 JUMPI DUP2 MLOAD PUSH2 0x2C0 DUP8 DUP3 PUSH2 0x265 JUMP JUMPDEST SWAP7 POP PUSH2 0x2CB DUP4 PUSH2 0x27D JUMP JUMPDEST SWAP3 POP POP PUSH1 0x1 DUP2 ADD SWAP1 POP PUSH2 0x2AC JUMP JUMPDEST POP POP POP POP POP POP JUMP JUMPDEST PUSH1 0x0 PUSH2 0x140 DUP3 ADD SWAP1 POP PUSH2 0x2F7 PUSH1 0x0 DUP4 ADD DUP5 PUSH2 0x28A JUMP JUMPDEST SWAP3 SWAP2 POP POP JUMP JUMPDEST PUSH32 0x4E487B7100000000000000000000000000000000000000000000000000000000 PUSH1 0x0 MSTORE PUSH1 0x32 PUSH1 0x4 MSTORE PUSH1 0x24 PUSH1 0x0 REVERT JUMPDEST PUSH1 0x0 DUP2 SWAP1 POP SWAP2 SWAP1 POP JUMP JUMPDEST PUSH32 0x4E487B7100000000000000000000000000000000000000000000000000000000 PUSH1 0x0 MSTORE PUSH1 0x11 PUSH1 0x4 MSTORE PUSH1 0x24 PUSH1 0x0 REVERT JUMPDEST PUSH1 0x0 PUSH2 0x370 DUP3 PUSH2 0x32C JUMP JUMPDEST SWAP2 POP PUSH2 0x37B DUP4 PUSH2 0x32C JUMP JUMPDEST SWAP3 POP DUP3 DUP3 SUB SWAP1 POP DUP2 DUP2 SLT PUSH1 0x0 DUP5 SLT AND DUP3 DUP3 SGT PUSH1 0x0 DUP6 SLT ISZERO AND OR ISZERO PUSH2 0x3A2 JUMPI PUSH2 0x3A1 PUSH2 0x336 JUMP JUMPDEST JUMPDEST SWAP3 SWAP2 POP POP JUMP JUMPDEST PUSH1 0x0 PUSH2 0x3B3 DUP3 PUSH2 0x32C JUMP JUMPDEST SWAP2 POP PUSH2 0x3BE DUP4 PUSH2 0x32C JUMP JUMPDEST SWAP3 POP DUP3 DUP3 ADD SWAP1 POP DUP3 DUP2 SLT ISZERO PUSH1 0x0 DUP4 SLT AND DUP4 DUP3 SLT PUSH1 0x0 DUP5 SLT ISZERO AND OR ISZERO PUSH2 0x3E6 JUMPI PUSH2 0x3E5 PUSH2 0x336 JUMP JUMPDEST JUMPDEST SWAP3 SWAP2 POP POP JUMP JUMPDEST PUSH1 0x0 PUSH2 0x3F7 DUP3 PUSH2 0x32C JUMP JUMPDEST SWAP2 POP PUSH32 0x8000000000000000000000000000000000000000000000000000000000000000 DUP3 SUB PUSH2 0x429 JUMPI PUSH2 0x428 PUSH2 0x336 JUMP JUMPDEST JUMPDEST PUSH1 0x1 DUP3 SUB SWAP1 POP SWAP2 SWAP1 POP JUMP JUMPDEST PUSH1 0x0 PUSH2 0x43F DUP3 PUSH2 0x24C JUMP JUMPDEST SWAP2 POP PUSH32 0xFFFFFFFFFFFFFFFFFFFFFFFFFFFFFFFFFFFFFFFFFFFFFFFFFFFFFFFFFFFFFFFF DUP3 SUB PUSH2 0x471 JUMPI PUSH2 0x470 PUSH2 0x336 JUMP JUMPDEST JUMPDEST PUSH1 0x1 DUP3 ADD SWAP1 POP SWAP2 SWAP1 POP JUMP INVALID LOG2 PUSH5 0x6970667358 0x22 SLT KECCAK256 SWAP1 0x4E PUSH17 0x976584B7A41375B79E7808FBBD1F9FDD79 0xC7 PUSH32 0xE0CBA67FA69FEDB791C64736F6C634300081100330000000000000000000000 "
		},
		"gasEstimates": {
			"creation": {
				"codeDepositCost": "240400",
				"executionCost": "281",
				"totalCost": "240681"
			},
			"external": {
				"solution(uint256[10])": "infinite"
			}
		},
		"methodIdentifiers": {
			"solution(uint256[10])": "209b472e"
		}
	},
	"abi": [
		{
			"inputs": [
				{
					"internalType": "uint256[10]",
					"name": "unsortedArray",
					"type": "uint256[10]"
				}
			],
			"name": "solution",
			"outputs": [
				{
					"internalType": "uint256[10]",
					"name": "sortedArray",
					"type": "uint256[10]"
				}
			],
			"stateMutability": "nonpayable",
			"type": "function"
		}
	]
}